:10000000051485146120212B111C092892030B1162
:1000100060288E1C5F281008900A831682072C28FF
:1000200035282F2832283A282F2832283F282F28F1
:10003000322844282F28322849282F2832284E28B1
:100040002F28322853282F28322858282F283228A2
:1000500083120E1405145D28831205105D28831287
:1000600085105D28831285145D28831205158F1F66
:1000700005115D28831205150F1F05115D288312D8
:1000800005158F1E05115D28831205150F1E05111C
:100090005D28831205158F1D05115D288312051536
:1000A0000F1D05115D28831205158F1C05115D2894
:1000B000831205150F1C05115D280B11602860289F
:1000C00009008316F83085000F30860083129301F3
:1000D00094010230980009239700171C7128061616
:1000E00072280612971C7628861677288612171D06
:1000F0007B2806177C280613971D802886178128E1
:1001000086138B170F3092008316D730810083122D
:10011000111481018B1603019202031D8A288B1290
:1001200011100E308F00AA2000309800092395008E
:100130008F00AA200F308F00AA20013098000923D9
:1001400096008F00AA2004308F00AA2014308F0060
:10015000AA2008008316D030810083120E108E145E
:100160009001AC3081008B160E1CB4288B128E10BF
:100170000800023092008316D730810083121114D8
:1001800081018B1603019202031DC1288B121110ED
:1001900006180800061CCA2801309706170899009F
:1001A0000230980010230822171CD82806160800D1
:1001B00006120800023092008316D73081008312A5
:1001C000111481018B1603019202031DE2288B1288
:1001D000111086180800861CEB28023097061708B5
:1001E00099000230980010230822971CF9288616DF
:1001F000080086120800023092008316D730810072
:100200008312111481018B1603019202031D03292D
:100210008B12111006190800061D0C2904309706D0
:10022000170899000230980010230822171D1A2978
:100230000617080006130800023092008316D73014
:1002400081008312111481018B1603019202031D98
:1002500024298B12111086190800861D2D290830BB
:100260009706170899000230980010230822971D5E
:100270003B29861708008613080002309200831677
:10028000D73081008312111481018B160301920271
:10029000031D45298B12111006180800061C4E2953
:1002A00003011502031908000A3095020E308F0071
:1002B000AA2015088F00AA204D22080002309200C3
:1002C0008316D73081008312111481018B1603012C
:1002D0009202031D66298B12111086180800861CD5
:1002E0006F2964301502031908000A3095070E3093
:1002F0008F00AA2015088F00AA204D220800023086
:1003000092008316D73081008312111481018B165D
:1003100003019202031D87298B1211100619080090
:10032000061D902903011602031908000A309602DF
:100330000F308F00AA2016088F00AA204D22080037
:10034000023092008316D73081008312111481018C
:100350008B1603019202031DA8298B121110861916
:100360000800861DB12964301602031908000A30FE
:1003700096070F308F00AA2016088F00AA204D2262
:100380000800023092008316D730810083121114C6
:1003900081018B1603019202031DC9298B121110D2
:1003A0008519080001309406851DD4294D22061CAC
:1003B0003D21861C5E21061D7F21861DA021851DF5
:1003C000E229D72915089900003098001023160853
:1003D0009900013098001023082208004F308F0048
:1003E000AA206E308F00AA2020308F00AA20203053
:1003F0008F00AA2008004F308F00AA2066308F009F
:10040000AA2066308F00AA2020308F00AA20080082
:100410000C308F00AA2020308F00AA2031308F00AE
:10042000AA203A308F00AA20171C182AEE21192A78
:10043000FB2120308F00AA2020308F00AA203230EC
:100440008F00AA203A308F00AA20971C292AEE217B
:100450002A2AFB2120308F00AA2020308F00AA20DA
:1004600033308F00AA203A308F00AA20171D3A2A75
:10047000EE213B2AFB2120308F00AA2020308F0064
:10048000AA2034308F00AA203A308F00AA20971D6E
:100490004B2AEE210800FB2108000C308F00AA2017
:1004A00042308F00AA2061308F00AA2063308F0075
:1004B000AA206B308F00AA206C308F00AA206930F0
:1004C0008F00AA2067308F00AA2068308F00AA20F2
:1004D00074308F00AA203A308F00AA2020308F007D
:1004E000AA2064301502031C7B2A0523052305235B
:1004F00005230523A82A50301502031C852A05234D
:100500000523052305230123A82A3C301502031CDB
:100510008F2A05230523052301230123A82A283038
:100520001502031C992A0523052301230123012316
:10053000A82A14301502031CA32A05230123012332
:1005400001230123A82A01230123012301230123DD
:1005500020308F00AA2043308F00AA206F308F00F8
:10056000AA206E308F00AA2074308F00AA2072302B
:100570008F00AA2061308F00AA2073308F00AA203C
:1005800074308F00AA203A308F00AA2020308F00CC
:10059000AA2064301602031CD32A05230523052351
:1005A00005230523002B50301602031CDD2A0523EA
:1005B0000523052305230123002B3C301602031CD1
:1005C000E72A05230523052301230123002B2830D7
:1005D0001602031CF12A052305230123012301230D
:1005E000002B14301602031CFB2A052301230123D0
:1005F00001230123002B01230123012301230123D4
:10060000080020308F00AA200800FF308F00AA20A9
:1006100008001808890083160814831208080800C7
:1006200018088900190888008316081555308900B4
:10063000AA30890088140811081E1C2B0812831286
:1006400008000C308F00AA2020308F00AA20203014
:100650008F00AA2020308F00AA204D308F00AA20C2
:1006600072308F00AA202E308F00AA2020308F00F9
:10067000AA2042308F00AA2061308F00AA20793052
:100680008F00AA2042308F00AA2075308F00AA2048
:1006900073308F00AA2020308F00AA2020308F00D6
:1006A000AA2020308F00AA2046308F00AA20613077
:1006B0008F00AA206E308F00AA2020308F00AA2041
:1006C00053308F00AA2079308F00AA2073308F001A
:1006D000AA2074308F00AA2065308F00AA206D30C8
:1006E0008F00AA2020308F00AA2020308F00AA205F
:1006F00076308F00AA2031308F00AA202E308F0054
:10070000AA2030308F00AA202E3092008316D730D6
:1007100081008312111481018B1603019202031DC3
:100720008C2B8B1211100822061CB920861CDA2093
:0E073000061DFB20861D1C21851DC121942B5A
:02400E00F13F80
:00000001FF
